{"abi":[{"type":"constructor","inputs":[{"name":"_name","type":"string","internalType":"string"},{"name":"_symbol","type":"string","internalType":"string"},{"name":"_decimals","type":"uint8","internalType":"uint8"},{"name":"_totalSupply","type":"uint256","internalType":"uint256"}],"stateMutability":"nonpayable"},{"type":"function","name":"allowance","inputs":[{"name":"","type":"address","internalType":"address"},{"name":"","type":"address","internalType":"address"}],"outputs":[{"name":"","type":"uint256","internalType":"uint256"}],"stateMutability":"view"},{"type":"function","name":"approve","inputs":[{"name":"spender","type":"address","internalType":"address"},{"name":"value","type":"uint256","internalType":"uint256"}],"outputs":[{"name":"","type":"bool","internalType":"bool"}],"stateMutability":"nonpayable"},{"type":"function","name":"balanceOf","inputs":[{"name":"","type":"address","internalType":"address"}],"outputs":[{"name":"","type":"uint256","internalType":"uint256"}],"stateMutability":"view"},{"type":"function","name":"burn","inputs":[{"name":"value","type":"uint256","internalType":"uint256"}],"outputs":[],"stateMutability":"nonpayable"},{"type":"function","name":"decimals","inputs":[],"outputs":[{"name":"","type":"uint8","internalType":"uint8"}],"stateMutability":"view"},{"type":"function","name":"mint","inputs":[{"name":"to","type":"address","internalType":"address"},{"name":"value","type":"uint256","internalType":"uint256"}],"outputs":[],"stateMutability":"nonpayable"},{"type":"function","name":"name","inputs":[],"outputs":[{"name":"","type":"string","internalType":"string"}],"stateMutability":"view"},{"type":"function","name":"symbol","inputs":[],"outputs":[{"name":"","type":"string","internalType":"string"}],"stateMutability":"view"},{"type":"function","name":"totalSupply","inputs":[],"outputs":[{"name":"","type":"uint256","internalType":"uint256"}],"stateMutability":"view"},{"type":"function","name":"transfer","inputs":[{"name":"to","type":"address","internalType":"address"},{"name":"value","type":"uint256","internalType":"uint256"}],"outputs":[{"name":"","type":"bool","internalType":"bool"}],"stateMutability":"nonpayable"},{"type":"function","name":"transferFrom","inputs":[{"name":"from","type":"address","internalType":"address"},{"name":"to","type":"address","internalType":"address"},{"name":"value","type":"uint256","internalType":"uint256"}],"outputs":[{"name":"","type":"bool","internalType":"bool"}],"stateMutability":"nonpayable"},{"type":"event","name":"Approval","inputs":[{"name":"owner","type":"address","indexed":true,"internalType":"address"},{"name":"spender","type":"address","indexed":true,"internalType":"address"},{"name":"value","type":"uint256","indexed":false,"internalType":"uint256"}],"anonymous":false},{"type":"event","name":"Transfer","inputs":[{"name":"from","type":"address","indexed":true,"internalType":"address"},{"name":"to","type":"address","indexed":true,"internalType":"address"},{"name":"value","type":"uint256","indexed":false,"internalType":"uint256"}],"anonymous":false}],"bytecode":{"object":"0x608060405234801561000f575f5ffd5b50604051611831380380611831833981810160405281019061003191906102d7565b835f908161003f919061057a565b50826001908161004f919061057a565b508160025f6101000a81548160ff021916908360ff160217905550806003819055508060045f3373ffffffffffffffffffffffffffffffffffffffff1673ffffffffffffffffffffffffffffffffffffffff1681526020019081526020015f20819055503373ffffffffffffffffffffffffffffffffffffffff165f73ffffffffffffffffffffffffffffffffffffffff167fddf252ad1be2c89b69c2b068fc378daa952ba7f163c4a11628f55a4df523b3ef836040516101109190610658565b60405180910390a350505050610671565b5f604051905090565b5f5ffd5b5f5ffd5b5f5ffd5b5f5ffd5b5f601f19601f8301169050919050565b7f4e487b71000000000000000000000000000000000000000000000000000000005f52604160045260245ffd5b6101808261013a565b810181811067ffffffffffffffff8211171561019f5761019e61014a565b5b80604052505050565b5f6101b1610121565b90506101bd8282610177565b919050565b5f67ffffffffffffffff8211156101dc576101db61014a565b5b6101e58261013a565b9050602081019050919050565b8281835e5f83830152505050565b5f61021261020d846101c2565b6101a8565b90508281526020810184848401111561022e5761022d610136565b5b6102398482856101f2565b509392505050565b5f82601f83011261025557610254610132565b5b8151610265848260208601610200565b91505092915050565b5f60ff82169050919050565b6102838161026e565b811461028d575f5ffd5b50565b5f8151905061029e8161027a565b92915050565b5f819050919050565b6102b6816102a4565b81146102c0575f5ffd5b50565b5f815190506102d1816102ad565b92915050565b5f5f5f5f608085870312156102ef576102ee61012a565b5b5f85015167ffffffffffffffff81111561030c5761030b61012e565b5b61031887828801610241565b945050602085015167ffffffffffffffff8111156103395761033861012e565b5b61034587828801610241565b935050604061035687828801610290565b9250506060610367878288016102c3565b91505092959194509250565b5f81519050919050565b7f4e487b71000000000000000000000000000000000000000000000000000000005f52602260045260245ffd5b5f60028204905060018216806103c157607f821691505b6020821081036103d4576103d361037d565b5b50919050565b5f819050815f5260205f209050919050565b5f6020601f8301049050919050565b5f82821b905092915050565b5f600883026104367fffffffffffffffffffffffffffffffffffffffffffffffffffffffffffffffff826103fb565b61044086836103fb565b95508019841693508086168417925050509392505050565b5f819050919050565b5f61047b610476610471846102a4565b610458565b6102a4565b9050919050565b5f819050919050565b61049483610461565b6104a86104a082610482565b848454610407565b825550505050565b5f5f905090565b6104bf6104b0565b6104ca81848461048b565b505050565b5b818110156104ed576104e25f826104b7565b6001810190506104d0565b5050565b601f82111561053257610503816103da565b61050c846103ec565b8101602085101561051b578190505b61052f610527856103ec565b8301826104cf565b50505b505050565b5f82821c905092915050565b5f6105525f1984600802610537565b1980831691505092915050565b5f61056a8383610543565b9150826002028217905092915050565b61058382610373565b67ffffffffffffffff81111561059c5761059b61014a565b5b6105a682546103aa565b6105b18282856104f1565b5f60209050601f8311600181146105e2575f84156105d0578287015190505b6105da858261055f565b865550610641565b601f1984166105f0866103da565b5f5b82811015610617578489015182556001820191506020850194506020810190506105f2565b868310156106345784890151610630601f891682610543565b8355505b6001600288020188555050505b505050505050565b610652816102a4565b82525050565b5f60208201905061066b5f830184610649565b92915050565b6111b38061067e5f395ff3fe608060405234801561000f575f5ffd5b50600436106100a7575f3560e01c806340c10f191161006f57806340c10f191461016557806342966c681461018157806370a082311461019d57806395d89b41146101cd578063a9059cbb146101eb578063dd62ed3e1461021b576100a7565b806306fdde03146100ab578063095ea7b3146100c957806318160ddd146100f957806323b872dd14610117578063313ce56714610147575b5f5ffd5b6100b361024b565b6040516100c09190610cf3565b60405180910390f35b6100e360048036038101906100de9190610da4565b6102d6565b6040516100f09190610dfc565b60405180910390f35b6101016103c3565b60405161010e9190610e24565b60405180910390f35b610131600480360381019061012c9190610e3d565b6103c9565b60405161013e9190610dfc565b60405180910390f35b61014f610717565b60405161015c9190610ea8565b60405180910390f35b61017f600480360381019061017a9190610da4565b610729565b005b61019b60048036038101906101969190610ec1565b61086b565b005b6101b760048036038101906101b29190610eec565b6109be565b6040516101c49190610e24565b60405180910390f35b6101d56109d3565b6040516101e29190610cf3565b60405180910390f35b61020560048036038101906102009190610da4565b610a5f565b6040516102129190610dfc565b60405180910390f35b61023560048036038101906102309190610f17565b610c63565b6040516102429190610e24565b60405180910390f35b5f805461025790610f82565b80601f016020809104026020016040519081016040528092919081815260200182805461028390610f82565b80156102ce5780601f106102a5576101008083540402835291602001916102ce565b820191905f5260205f20905b8154815290600101906020018083116102b157829003601f168201915b505050505081565b5f8160055f3373ffffffffffffffffffffffffffffffffffffffff1673ffffffffffffffffffffffffffffffffffffffff1681526020019081526020015f205f8573ffffffffffffffffffffffffffffffffffffffff1673ffffffffffffffffffffffffffffffffffffffff1681526020019081526020015f20819055508273ffffffffffffffffffffffffffffffffffffffff163373ffffffffffffffffffffffffffffffffffffffff167f8c5be1e5ebec7d5bd14f71427d1e84f3dd0314c0f7b2291e5b200ac8c7c3b925846040516103b19190610e24565b60405180910390a36001905092915050565b60035481565b5f8160045f8673ffffffffffffffffffffffffffffffffffffffff1673ffffffffffffffffffffffffffffffffffffffff1681526020019081526020015f2054101561044a576040517f08c379a000000000000000000000000000000000000000000000000000000000815260040161044190610ffc565b60405180910390fd5b8160055f8673ffffffffffffffffffffffffffffffffffffffff1673ffffffffffffffffffffffffffffffffffffffff1681526020019081526020015f205f3373ffffffffffffffffffffffffffffffffffffffff1673ffffffffffffffffffffffffffffffffffffffff1681526020019081526020015f20541015610505576040517f08c379a00000000000000000000000000000000000000000000000000000000081526004016104fc90611064565b60405180910390fd5b5f73ffffffffffffffffffffffffffffffffffffffff168373ffffffffffffffffffffffffffffffffffffffff1603610573576040517f08c379a000000000000000000000000000000000000000000000000000000000815260040161056a906110cc565b60405180910390fd5b8160045f8673ffffffffffffffffffffffffffffffffffffffff1673ffffffffffffffffffffffffffffffffffffffff1681526020019081526020015f205f8282546105bf9190611117565b925050819055508160045f8573ffffffffffffffffffffffffffffffffffffffff1673ffffffffffffffffffffffffffffffffffffffff1681526020019081526020015f205f828254610612919061114a565b925050819055508160055f8673ffffffffffffffffffffffffffffffffffffffff1673ffffffffffffffffffffffffffffffffffffffff1681526020019081526020015f205f3373ffffffffffffffffffffffffffffffffffffffff1673ffffffffffffffffffffffffffffffffffffffff1681526020019081526020015f205f8282546106a09190611117565b925050819055508273ffffffffffffffffffffffffffffffffffffffff168473ffffffffffffffffffffffffffffffffffffffff167fddf252ad1be2c89b69c2b068fc378daa952ba7f163c4a11628f55a4df523b3ef846040516107049190610e24565b60405180910390a3600190509392505050565b60025f9054906101000a900460ff1681565b5f73ffffffffffffffffffffffffffffffffffffffff168273ffffffffffffffffffffffffffffffffffffffff1603610797576040517f08c379a000000000000000000000000000000000000000000000000000000000815260040161078e906110cc565b60405180910390fd5b8060035f8282546107a8919061114a565b925050819055508060045f8473ffffffffffffffffffffffffffffffffffffffff1673ffffffffffffffffffffffffffffffffffffffff1681526020019081526020015f205f8282546107fb919061114a565b925050819055508173ffffffffffffffffffffffffffffffffffffffff165f73ffffffffffffffffffffffffffffffffffffffff167fddf252ad1be2c89b69c2b068fc378daa952ba7f163c4a11628f55a4df523b3ef8360405161085f9190610e24565b60405180910390a35050565b8060045f3373ffffffffffffffffffffffffffffffffffffffff1673ffffffffffffffffffffffffffffffffffffffff1681526020019081526020015f205410156108eb576040517f08c379a00000000000000000000000000000000000000000000000000000000081526004016108e290610ffc565b60405180910390fd5b8060045f3373ffffffffffffffffffffffffffffffffffffffff1673ffffffffffffffffffffffffffffffffffffffff1681526020019081526020015f205f8282546109379190611117565b925050819055508060035f82825461094f9190611117565b925050819055505f73ffffffffffffffffffffffffffffffffffffffff163373ffffffffffffffffffffffffffffffffffffffff167fddf252ad1be2c89b69c2b068fc378daa952ba7f163c4a11628f55a4df523b3ef836040516109b39190610e24565b60405180910390a350565b6004602052805f5260405f205f915090505481565b600180546109e090610f82565b80601f0160208091040260200160405190810160405280929190818152602001828054610a0c90610f82565b8015610a575780601f10610a2e57610100808354040283529160200191610a57565b820191905f5260205f20905b815481529060010190602001808311610a3a57829003601f168201915b505050505081565b5f8160045f3373ffffffffffffffffffffffffffffffffffffffff1673ffffffffffffffffffffffffffffffffffffffff1681526020019081526020015f20541015610ae0576040517f08c379a0000000000000000000000000000000000000000000000000000000008152600401610ad790610ffc565b60405180910390fd5b5f73ffffffffffffffffffffffffffffffffffffffff168373ffffffffffffffffffffffffffffffffffffffff1603610b4e576040517f08c379a0000000000000000000000000000000000000000000000000000000008152600401610b45906110cc565b60405180910390fd5b8160045f3373ffffffffffffffffffffffffffffffffffffffff1673ffffffffffffffffffffffffffffffffffffffff1681526020019081526020015f205f828254610b9a9190611117565b925050819055508160045f8573ffffffffffffffffffffffffffffffffffffffff1673ffffffffffffffffffffffffffffffffffffffff1681526020019081526020015f205f828254610bed919061114a565b925050819055508273ffffffffffffffffffffffffffffffffffffffff163373ffffffffffffffffffffffffffffffffffffffff167fddf252ad1be2c89b69c2b068fc378daa952ba7f163c4a11628f55a4df523b3ef84604051610c519190610e24565b60405180910390a36001905092915050565b6005602052815f5260405f20602052805f5260405f205f91509150505481565b5f81519050919050565b5f82825260208201905092915050565b8281835e5f83830152505050565b5f601f19601f8301169050919050565b5f610cc582610c83565b610ccf8185610c8d565b9350610cdf818560208601610c9d565b610ce881610cab565b840191505092915050565b5f6020820190508181035f830152610d0b8184610cbb565b905092915050565b5f5ffd5b5f73ffffffffffffffffffffffffffffffffffffffff82169050919050565b5f610d4082610d17565b9050919050565b610d5081610d36565b8114610d5a575f5ffd5b50565b5f81359050610d6b81610d47565b92915050565b5f819050919050565b610d8381610d71565b8114610d8d575f5ffd5b50565b5f81359050610d9e81610d7a565b92915050565b5f5f60408385031215610dba57610db9610d13565b5b5f610dc785828601610d5d565b9250506020610dd885828601610d90565b9150509250929050565b5f8115159050919050565b610df681610de2565b82525050565b5f602082019050610e0f5f830184610ded565b92915050565b610e1e81610d71565b82525050565b5f602082019050610e375f830184610e15565b92915050565b5f5f5f60608486031215610e5457610e53610d13565b5b5f610e6186828701610d5d565b9350506020610e7286828701610d5d565b9250506040610e8386828701610d90565b9150509250925092565b5f60ff82169050919050565b610ea281610e8d565b82525050565b5f602082019050610ebb5f830184610e99565b92915050565b5f60208284031215610ed657610ed5610d13565b5b5f610ee384828501610d90565b91505092915050565b5f60208284031215610f0157610f00610d13565b5b5f610f0e84828501610d5d565b91505092915050565b5f5f60408385031215610f2d57610f2c610d13565b5b5f610f3a85828601610d5d565b9250506020610f4b85828601610d5d565b9150509250929050565b7f4e487b71000000000000000000000000000000000000000000000000000000005f52602260045260245ffd5b5f6002820490506001821680610f9957607f821691505b602082108103610fac57610fab610f55565b5b50919050565b7f496e73756666696369656e742062616c616e63650000000000000000000000005f82015250565b5f610fe6601483610c8d565b9150610ff182610fb2565b602082019050919050565b5f6020820190508181035f83015261101381610fda565b9050919050565b7f496e73756666696369656e7420616c6c6f77616e6365000000000000000000005f82015250565b5f61104e601683610c8d565b91506110598261101a565b602082019050919050565b5f6020820190508181035f83015261107b81611042565b9050919050565b7f496e76616c696420726563697069656e740000000000000000000000000000005f82015250565b5f6110b6601183610c8d565b91506110c182611082565b602082019050919050565b5f6020820190508181035f8301526110e3816110aa565b9050919050565b7f4e487b71000000000000000000000000000000000000000000000000000000005f52601160045260245ffd5b5f61112182610d71565b915061112c83610d71565b9250828203905081811115611144576111436110ea565b5b92915050565b5f61115482610d71565b915061115f83610d71565b9250828201905080821115611177576111766110ea565b5b9291505056fea264697066735822122091de2f0b2cb012bd7a950b980ebc9334fe158434086cb035f93696419c4dbe0564736f6c634300081e0033","linkReferences":{}},"methodIdentifiers":{"allowance(address,address)":"dd62ed3e","approve(address,uint256)":"095ea7b3","balanceOf(address)":"70a08231","burn(uint256)":"42966c68","decimals()":"313ce567","mint(address,uint256)":"40c10f19","name()":"06fdde03","symbol()":"95d89b41","totalSupply()":"18160ddd","transfer(address,uint256)":"a9059cbb","transferFrom(address,address,uint256)":"23b872dd"},"id":21}