{"abi":[{"type":"function","name":"DEFAULT_GRACE_PERIOD","inputs":[],"outputs":[{"name":"","type":"uint256","internalType":"uint256"}],"stateMutability":"view"},{"type":"function","name":"MAX_INACTIVITY_PERIOD","inputs":[],"outputs":[{"name":"","type":"uint256","internalType":"uint256"}],"stateMutability":"view"},{"type":"function","name":"MIN_INACTIVITY_PERIOD","inputs":[],"outputs":[{"name":"","type":"uint256","internalType":"uint256"}],"stateMutability":"view"},{"type":"function","name":"canClaimInheritance","inputs":[],"outputs":[{"name":"canClaim","type":"bool","internalType":"bool"},{"name":"timeRemaining","type":"uint256","internalType":"uint256"}],"stateMutability":"view"},{"type":"function","name":"cancelInheritance","inputs":[],"outputs":[],"stateMutability":"nonpayable"},{"type":"function","name":"claimOwnership","inputs":[],"outputs":[],"stateMutability":"nonpayable"},{"type":"function","name":"emergencyReset","inputs":[],"outputs":[],"stateMutability":"nonpayable"},{"type":"function","name":"getAuthorizedOwner","inputs":[],"outputs":[{"name":"","type":"address","internalType":"address"}],"stateMutability":"view"},{"type":"function","name":"getInheritanceConfig","inputs":[],"outputs":[{"name":"inheritor","type":"address","internalType":"address"},{"name":"inactivityPeriod","type":"uint256","internalType":"uint256"},{"name":"lastActive","type":"uint256","internalType":"uint256"},{"name":"gracePeriod","type":"uint256","internalType":"uint256"}],"stateMutability":"view"},{"type":"function","name":"keepAlive","inputs":[],"outputs":[],"stateMutability":"nonpayable"},{"type":"function","name":"setupInheritance","inputs":[{"name":"_inheritor","type":"address","internalType":"address"},{"name":"_inactivityPeriod","type":"uint256","internalType":"uint256"}],"outputs":[],"stateMutability":"nonpayable"},{"type":"event","name":"ActivityRecorded","inputs":[{"name":"owner","type":"address","indexed":true,"internalType":"address"},{"name":"timestamp","type":"uint256","indexed":false,"internalType":"uint256"}],"anonymous":false},{"type":"event","name":"EmergencyReset","inputs":[{"name":"owner","type":"address","indexed":true,"internalType":"address"}],"anonymous":false},{"type":"event","name":"InheritanceCancelled","inputs":[{"name":"owner","type":"address","indexed":true,"internalType":"address"}],"anonymous":false},{"type":"event","name":"InheritanceSetup","inputs":[{"name":"inheritor","type":"address","indexed":true,"internalType":"address"},{"name":"inactivityPeriod","type":"uint256","indexed":false,"internalType":"uint256"}],"anonymous":false},{"type":"event","name":"OwnershipClaimed","inputs":[{"name":"previousOwner","type":"address","indexed":true,"internalType":"address"},{"name":"newOwner","type":"address","indexed":true,"internalType":"address"}],"anonymous":false},{"type":"error","name":"InactivityPeriodNotMet","inputs":[]},{"type":"error","name":"InvalidInheritor","inputs":[]},{"type":"error","name":"InvalidPeriod","inputs":[]},{"type":"error","name":"NoInheritanceConfigured","inputs":[]},{"type":"error","name":"ReentrancyGuard","inputs":[]},{"type":"error","name":"UnauthorizedAccess","inputs":[]}],"bytecode":{"object":"0x6080604052348015600e575f5ffd5b506111bf8061001c5f395ff3fe608060405234801561000f575f5ffd5b50600436106100a7575f3560e01c806387740c0d1161006f57806387740c0d1461011a57806397a9093d14610124578063aa14cc6b14610142578063b106d2d21461014c578063e754dead1461016a578063fe0f0aec14610186576100a7565b806316388836146100ab5780634c49fab8146100b55780634e71e0c8146100d35780637d25327a146100dd5780638493eb25146100fc575b5f5ffd5b6100b36101a7565b005b6100bd6103af565b6040516100ca9190610f6b565b60405180910390f35b6100db6103b6565b005b6100e561063b565b6040516100f3929190610f9e565b60405180910390f35b610104610715565b6040516101119190610f6b565b60405180910390f35b61012261071d565b005b61012c610858565b6040516101399190611004565b60405180910390f35b61014a610866565b005b610154610a7a565b6040516101619190610f6b565b60405180910390f35b610184600480360381019061017f9190611075565b610a81565b005b61018e610d98565b60405161019e94939291906110b3565b60405180910390f35b6101af610dca565b156101e6576040517f8beb9d1600000000000000000000000000000000000000000000000000000000815260040160405180910390fd5b6101f06001610dff565b5f6101f9610e2a565b90505f73ffffffffffffffffffffffffffffffffffffffff168173ffffffffffffffffffffffffffffffffffffffff16148061026157508073ffffffffffffffffffffffffffffffffffffffff163373ffffffffffffffffffffffffffffffffffffffff1614155b15610298576040517f344fd58600000000000000000000000000000000000000000000000000000000815260040160405180910390fd5b5f7fe6135ff1cc5bf23b2b67e8c079fd00288600c5e9a25ac958cf17fdea783cc7dd90505f7fa27104e7a5a357cac4c7a628df4ca09a5ee27d49d60ee8ec0064ea5483d4b8ab90505f7fdd09cffa80134180caf03be5f37d4f0a58baa485d21f18a15074deff8eccf48a90505f7fe3c0ce85d14956d0fcf53195be5c65a834f921f2c71870b248c4726953f2137190505f7f290ac055d1c48d7072923cd7d7c36c055c0b0c7b91564020cc63ce60ebe8708090505f85555f84555f83555f82555f81553373ffffffffffffffffffffffffffffffffffffffff167fe8b81f80d5a15e0fa6ba0d507d1fae13211b22a6159be563c15a42f9f3ff4e5f60405160405180910390a25050505050506103ad5f610dff565b565b62093a8081565b6103be610dca565b156103f5576040517f8beb9d1600000000000000000000000000000000000000000000000000000000815260040160405180910390fd5b6103ff6001610dff565b5f610408610e5e565b90505f73ffffffffffffffffffffffffffffffffffffffff168173ffffffffffffffffffffffffffffffffffffffff160361046f576040517f7a746da900000000000000000000000000000000000000000000000000000000815260040160405180910390fd5b8073ffffffffffffffffffffffffffffffffffffffff163373ffffffffffffffffffffffffffffffffffffffff16146104d4576040517f344fd58600000000000000000000000000000000000000000000000000000000815260040160405180910390fd5b5f6104dd610e92565b90505f6104e8610ec4565b90505f6104f3610ef6565b90508082846105029190611123565b61050c9190611123565b421015610545576040517f91c3ca2600000000000000000000000000000000000000000000000000000000815260040160405180910390fd5b5f61054e610e2a565b905061055985610f28565b5f7fe6135ff1cc5bf23b2b67e8c079fd00288600c5e9a25ac958cf17fdea783cc7dd90505f7fa27104e7a5a357cac4c7a628df4ca09a5ee27d49d60ee8ec0064ea5483d4b8ab90505f7fe3c0ce85d14956d0fcf53195be5c65a834f921f2c71870b248c4726953f2137190505f83555f82555f81558773ffffffffffffffffffffffffffffffffffffffff168473ffffffffffffffffffffffffffffffffffffffff167f935c51778db70bb63d01ba9b319c9b8f13d608e43d550a91d8896bd1368857df60405160405180910390a350505050505050506106395f610dff565b565b5f5f5f610646610e5e565b90505f73ffffffffffffffffffffffffffffffffffffffff168173ffffffffffffffffffffffffffffffffffffffff16036106a7575f7fffffffffffffffffffffffffffffffffffffffffffffffffffffffffffffffff9250925050610711565b5f6106b0610e92565b90505f6106bb610ec4565b90505f6106c6610ef6565b90505f8183856106d69190611123565b6106e09190611123565b90508042106106fa5760015f965096505050505050610711565b5f42826107079190611156565b9650965050505050505b9091565b6312cc030081565b610725610e2a565b73ffffffffffffffffffffffffffffffffffffffff163373ffffffffffffffffffffffffffffffffffffffff1614610789576040517f344fd58600000000000000000000000000000000000000000000000000000000815260040160405180910390fd5b610791610dca565b156107c8576040517f8beb9d1600000000000000000000000000000000000000000000000000000000815260040160405180910390fd5b6107d26001610dff565b5f7fdd09cffa80134180caf03be5f37d4f0a58baa485d21f18a15074deff8eccf48a90505f4290508082553373ffffffffffffffffffffffffffffffffffffffff167fba86a92ec4f9a430ce1db15be3f3909cc6e377afbe263e73d39af81e53b6130c426040516108439190610f6b565b60405180910390a250506108565f610dff565b565b5f610861610e2a565b905090565b61086e610dca565b156108a5576040517f8beb9d1600000000000000000000000000000000000000000000000000000000815260040160405180910390fd5b6108af6001610dff565b5f73ffffffffffffffffffffffffffffffffffffffff166108ce610e5e565b73ffffffffffffffffffffffffffffffffffffffff160361091b576040517f7a746da900000000000000000000000000000000000000000000000000000000815260040160405180910390fd5b610923610e2a565b73ffffffffffffffffffffffffffffffffffffffff163373ffffffffffffffffffffffffffffffffffffffff1614610987576040517f344fd58600000000000000000000000000000000000000000000000000000000815260040160405180910390fd5b5f7fe6135ff1cc5bf23b2b67e8c079fd00288600c5e9a25ac958cf17fdea783cc7dd90505f7fa27104e7a5a357cac4c7a628df4ca09a5ee27d49d60ee8ec0064ea5483d4b8ab90505f7fe3c0ce85d14956d0fcf53195be5c65a834f921f2c71870b248c4726953f2137190505f7fdd09cffa80134180caf03be5f37d4f0a58baa485d21f18a15074deff8eccf48a90505f4290505f85555f84555f83558082553373ffffffffffffffffffffffffffffffffffffffff167f577d80a92396a49283a298935287995fee74eceefc62c3edfdf8257ec854629660405160405180910390a25050505050610a785f610dff565b565b62278d0081565b610a89610dca565b15610ac0576040517f8beb9d1600000000000000000000000000000000000000000000000000000000815260040160405180910390fd5b610aca6001610dff565b5f610ad3610e2a565b90505f73ffffffffffffffffffffffffffffffffffffffff168173ffffffffffffffffffffffffffffffffffffffff1603610b1557610b1133610f28565b3390505b8073ffffffffffffffffffffffffffffffffffffffff163373ffffffffffffffffffffffffffffffffffffffff1614610b7a576040517f344fd58600000000000000000000000000000000000000000000000000000000815260040160405180910390fd5b5f73ffffffffffffffffffffffffffffffffffffffff168373ffffffffffffffffffffffffffffffffffffffff1603610bdf576040517f7f5c473e00000000000000000000000000000000000000000000000000000000815260040160405180910390fd5b8073ffffffffffffffffffffffffffffffffffffffff168373ffffffffffffffffffffffffffffffffffffffff1603610c44576040517f7f5c473e00000000000000000000000000000000000000000000000000000000815260040160405180910390fd5b62278d00821080610c5857506312cc030082115b15610c8f576040517f17479ac800000000000000000000000000000000000000000000000000000000815260040160405180910390fd5b5f7fe6135ff1cc5bf23b2b67e8c079fd00288600c5e9a25ac958cf17fdea783cc7dd90505f7fa27104e7a5a357cac4c7a628df4ca09a5ee27d49d60ee8ec0064ea5483d4b8ab90505f7fdd09cffa80134180caf03be5f37d4f0a58baa485d21f18a15074deff8eccf48a90505f7fe3c0ce85d14956d0fcf53195be5c65a834f921f2c71870b248c4726953f2137190505f4290505f62093a8090508886558785558184558083558873ffffffffffffffffffffffffffffffffffffffff167fd6503c45d26f7c4ef41043695ab34857a2d222f6b208ac5b7642dcc40b5e058389604051610d7c9190610f6b565b60405180910390a250505050505050610d945f610dff565b5050565b5f5f5f5f610da4610e5e565b610dac610ec4565b610db4610e92565b610dbc610ef6565b935093509350935090919293565b5f5f5f7fe4262478610998ec1b53f5fb364572dbf6a01e1a6fb3e6c5996a4a39c6da1f12905080549150600182149250505090565b5f7fe4262478610998ec1b53f5fb364572dbf6a01e1a6fb3e6c5996a4a39c6da1f1290508181555050565b5f5f5f7f290ac055d1c48d7072923cd7d7c36c055c0b0c7b91564020cc63ce60ebe87080905080549150815f1c9250505090565b5f5f5f7fe6135ff1cc5bf23b2b67e8c079fd00288600c5e9a25ac958cf17fdea783cc7dd905080549150815f1c9250505090565b5f5f5f7fdd09cffa80134180caf03be5f37d4f0a58baa485d21f18a15074deff8eccf48a905080549150819250505090565b5f5f5f7fa27104e7a5a357cac4c7a628df4ca09a5ee27d49d60ee8ec0064ea5483d4b8ab905080549150819250505090565b5f5f5f7fe3c0ce85d14956d0fcf53195be5c65a834f921f2c71870b248c4726953f21371905080549150819250505090565b5f7f290ac055d1c48d7072923cd7d7c36c055c0b0c7b91564020cc63ce60ebe8708090508181555050565b5f819050919050565b610f6581610f53565b82525050565b5f602082019050610f7e5f830184610f5c565b92915050565b5f8115159050919050565b610f9881610f84565b82525050565b5f604082019050610fb15f830185610f8f565b610fbe6020830184610f5c565b9392505050565b5f73ffffffffffffffffffffffffffffffffffffffff82169050919050565b5f610fee82610fc5565b9050919050565b610ffe81610fe4565b82525050565b5f6020820190506110175f830184610ff5565b92915050565b5f5ffd5b61102a81610fe4565b8114611034575f5ffd5b50565b5f8135905061104581611021565b92915050565b61105481610f53565b811461105e575f5ffd5b50565b5f8135905061106f8161104b565b92915050565b5f5f6040838503121561108b5761108a61101d565b5b5f61109885828601611037565b92505060206110a985828601611061565b9150509250929050565b5f6080820190506110c65f830187610ff5565b6110d36020830186610f5c565b6110e06040830185610f5c565b6110ed6060830184610f5c565b95945050505050565b7f4e487b71000000000000000000000000000000000000000000000000000000005f52601160045260245ffd5b5f61112d82610f53565b915061113883610f53565b92508282019050808211156111505761114f6110f6565b5b92915050565b5f61116082610f53565b915061116b83610f53565b9250828203905081811115611183576111826110f6565b5b9291505056fea2646970667358221220e682a4d3a05a81bf7de3c92779e599e450eeb558d7703a18bd38bd6fade4ce1964736f6c634300081e0033","linkReferences":{}},"methodIdentifiers":{"DEFAULT_GRACE_PERIOD()":"4c49fab8","MAX_INACTIVITY_PERIOD()":"8493eb25","MIN_INACTIVITY_PERIOD()":"b106d2d2","canClaimInheritance()":"7d25327a","cancelInheritance()":"aa14cc6b","claimOwnership()":"4e71e0c8","emergencyReset()":"16388836","getAuthorizedOwner()":"97a9093d","getInheritanceConfig()":"fe0f0aec","keepAlive()":"87740c0d","setupInheritance(address,uint256)":"e754dead"},"id":19}