{"abi":[{"type":"fallback","stateMutability":"payable"},{"type":"receive","stateMutability":"payable"},{"type":"function","name":"DEFAULT_GRACE_PERIOD","inputs":[],"outputs":[{"name":"","type":"uint256","internalType":"uint256"}],"stateMutability":"view"},{"type":"function","name":"MAX_INACTIVITY_PERIOD","inputs":[],"outputs":[{"name":"","type":"uint256","internalType":"uint256"}],"stateMutability":"view"},{"type":"function","name":"MIN_INACTIVITY_PERIOD","inputs":[],"outputs":[{"name":"","type":"uint256","internalType":"uint256"}],"stateMutability":"view"},{"type":"function","name":"approveERC20","inputs":[{"name":"token","type":"address","internalType":"address"},{"name":"spender","type":"address","internalType":"address"},{"name":"amount","type":"uint256","internalType":"uint256"}],"outputs":[],"stateMutability":"nonpayable"},{"type":"function","name":"canClaimInheritance","inputs":[],"outputs":[{"name":"canClaim","type":"bool","internalType":"bool"},{"name":"timeRemaining","type":"uint256","internalType":"uint256"}],"stateMutability":"view"},{"type":"function","name":"canExecuteTransaction","inputs":[{"name":"target","type":"address","internalType":"address"},{"name":"value","type":"uint256","internalType":"uint256"}],"outputs":[{"name":"canExecute","type":"bool","internalType":"bool"},{"name":"reason","type":"string","internalType":"string"}],"stateMutability":"view"},{"type":"function","name":"cancelInheritance","inputs":[],"outputs":[],"stateMutability":"nonpayable"},{"type":"function","name":"claimOwnership","inputs":[],"outputs":[],"stateMutability":"nonpayable"},{"type":"function","name":"emergencyReset","inputs":[],"outputs":[],"stateMutability":"nonpayable"},{"type":"function","name":"emergencyWithdraw","inputs":[{"name":"to","type":"address","internalType":"address payable"}],"outputs":[],"stateMutability":"nonpayable"},{"type":"function","name":"executeBatchTransactions","inputs":[{"name":"targets","type":"address[]","internalType":"address[]"},{"name":"values","type":"uint256[]","internalType":"uint256[]"},{"name":"dataArray","type":"bytes[]","internalType":"bytes[]"}],"outputs":[{"name":"successCount","type":"uint256","internalType":"uint256"}],"stateMutability":"nonpayable"},{"type":"function","name":"executeTransaction","inputs":[{"name":"target","type":"address","internalType":"address"},{"name":"value","type":"uint256","internalType":"uint256"},{"name":"data","type":"bytes","internalType":"bytes"}],"outputs":[{"name":"success","type":"bool","internalType":"bool"},{"name":"returnData","type":"bytes","internalType":"bytes"}],"stateMutability":"nonpayable"},{"type":"function","name":"getAuthorizedOwner","inputs":[],"outputs":[{"name":"","type":"address","internalType":"address"}],"stateMutability":"view"},{"type":"function","name":"getERC20Balance","inputs":[{"name":"token","type":"address","internalType":"address"}],"outputs":[{"name":"","type":"uint256","internalType":"uint256"}],"stateMutability":"view"},{"type":"function","name":"getETHBalance","inputs":[],"outputs":[{"name":"","type":"uint256","internalType":"uint256"}],"stateMutability":"view"},{"type":"function","name":"getInheritanceConfig","inputs":[],"outputs":[{"name":"inheritor","type":"address","internalType":"address"},{"name":"inactivityPeriod","type":"uint256","internalType":"uint256"},{"name":"lastActive","type":"uint256","internalType":"uint256"},{"name":"gracePeriod","type":"uint256","internalType":"uint256"}],"stateMutability":"view"},{"type":"function","name":"keepAlive","inputs":[],"outputs":[],"stateMutability":"nonpayable"},{"type":"function","name":"setupInheritance","inputs":[{"name":"_inheritor","type":"address","internalType":"address"},{"name":"_inactivityPeriod","type":"uint256","internalType":"uint256"}],"outputs":[],"stateMutability":"nonpayable"},{"type":"function","name":"transferERC20","inputs":[{"name":"token","type":"address","internalType":"address"},{"name":"to","type":"address","internalType":"address"},{"name":"amount","type":"uint256","internalType":"uint256"}],"outputs":[],"stateMutability":"nonpayable"},{"type":"function","name":"transferETH","inputs":[{"name":"to","type":"address","internalType":"address payable"},{"name":"amount","type":"uint256","internalType":"uint256"}],"outputs":[],"stateMutability":"nonpayable"},{"type":"event","name":"ActivityRecorded","inputs":[{"name":"owner","type":"address","indexed":true,"internalType":"address"},{"name":"timestamp","type":"uint256","indexed":false,"internalType":"uint256"}],"anonymous":false},{"type":"event","name":"BatchTransactionExecuted","inputs":[{"name":"batchId","type":"uint256","indexed":true,"internalType":"uint256"},{"name":"successCount","type":"uint256","indexed":false,"internalType":"uint256"},{"name":"totalCount","type":"uint256","indexed":false,"internalType":"uint256"}],"anonymous":false},{"type":"event","name":"EmergencyReset","inputs":[{"name":"owner","type":"address","indexed":true,"internalType":"address"}],"anonymous":false},{"type":"event","name":"InheritanceCancelled","inputs":[{"name":"owner","type":"address","indexed":true,"internalType":"address"}],"anonymous":false},{"type":"event","name":"InheritanceSetup","inputs":[{"name":"inheritor","type":"address","indexed":true,"internalType":"address"},{"name":"inactivityPeriod","type":"uint256","indexed":false,"internalType":"uint256"}],"anonymous":false},{"type":"event","name":"OwnershipClaimed","inputs":[{"name":"previousOwner","type":"address","indexed":true,"internalType":"address"},{"name":"newOwner","type":"address","indexed":true,"internalType":"address"}],"anonymous":false},{"type":"event","name":"TransactionExecuted","inputs":[{"name":"target","type":"address","indexed":true,"internalType":"address"},{"name":"value","type":"uint256","indexed":false,"internalType":"uint256"},{"name":"data","type":"bytes","indexed":false,"internalType":"bytes"},{"name":"success","type":"bool","indexed":false,"internalType":"bool"}],"anonymous":false},{"type":"error","name":"InactivityPeriodNotMet","inputs":[]},{"type":"error","name":"InsufficientBalance","inputs":[]},{"type":"error","name":"InvalidInheritor","inputs":[]},{"type":"error","name":"InvalidPeriod","inputs":[]},{"type":"error","name":"InvalidTarget","inputs":[]},{"type":"error","name":"NoInheritanceConfigured","inputs":[]},{"type":"error","name":"ReentrancyGuard","inputs":[]},{"type":"error","name":"TransactionFailed","inputs":[]},{"type":"error","name":"UnauthorizedAccess","inputs":[]}],"bytecode":{"object":"0x6080604052348015600e575f5ffd5b506130f38061001c5f395ff3fe608060405260043610610122575f3560e01c806387740c0d1161009f578063b106d2d211610063578063b106d2d21461036a578063b588d22514610394578063df39e114146103d0578063e754dead1461040c578063fe0f0aec1461043457610123565b806387740c0d146102c457806397a9093d146102da5780639db5dbe414610304578063a8e5e4aa1461032c578063aa14cc6b1461035457610123565b80636e947298116100e65780636e947298146101f55780636ff1c9bc1461021f5780637b1a4909146102475780637d25327a1461026f5780638493eb251461029a57610123565b806316388836146101255780631abd384e1461013b5780633f579f42146101785780634c49fab8146101b55780634e71e0c8146101df57610123565b5b005b348015610130575f5ffd5b50610139610461565b005b348015610146575f5ffd5b50610161600480360381019061015c919061261b565b610669565b60405161016f9291906126e3565b60405180910390f35b348015610183575f5ffd5b5061019e60048036038101906101999190612772565b6107c4565b6040516101ac929190612835565b60405180910390f35b3480156101c0575f5ffd5b506101c9610a28565b6040516101d69190612872565b60405180910390f35b3480156101ea575f5ffd5b506101f3610a2f565b005b348015610200575f5ffd5b50610209610cb4565b6040516102169190612872565b60405180910390f35b34801561022a575f5ffd5b50610245600480360381019061024091906128c6565b610cbb565b005b348015610252575f5ffd5b5061026d600480360381019061026891906128f1565b610ee4565b005b34801561027a575f5ffd5b50610283611135565b60405161029192919061292f565b60405180910390f35b3480156102a5575f5ffd5b506102ae61120f565b6040516102bb9190612872565b60405180910390f35b3480156102cf575f5ffd5b506102d8611217565b005b3480156102e5575f5ffd5b506102ee611352565b6040516102fb9190612965565b60405180910390f35b34801561030f575f5ffd5b5061032a6004803603810190610325919061297e565b611360565b005b348015610337575f5ffd5b50610352600480360381019061034d919061297e565b611674565b005b34801561035f575f5ffd5b50610368611988565b005b348015610375575f5ffd5b5061037e611b9c565b60405161038b9190612872565b60405180910390f35b34801561039f575f5ffd5b506103ba60048036038101906103b591906129ce565b611ba3565b6040516103c79190612872565b60405180910390f35b3480156103db575f5ffd5b506103f660048036038101906103f19190612af8565b611d17565b6040516104039190612872565b60405180910390f35b348015610417575f5ffd5b50610432600480360381019061042d919061261b565b6120b4565b005b34801561043f575f5ffd5b506104486123cb565b6040516104589493929190612ba8565b60405180910390f35b6104696123fd565b156104a0576040517f8beb9d1600000000000000000000000000000000000000000000000000000000815260040160405180910390fd5b6104aa6001612432565b5f6104b361245d565b90505f73ffffffffffffffffffffffffffffffffffffffff168173ffffffffffffffffffffffffffffffffffffffff16148061051b57508073ffffffffffffffffffffffffffffffffffffffff163373ffffffffffffffffffffffffffffffffffffffff1614155b15610552576040517f344fd58600000000000000000000000000000000000000000000000000000000815260040160405180910390fd5b5f7fe6135ff1cc5bf23b2b67e8c079fd00288600c5e9a25ac958cf17fdea783cc7dd90505f7fa27104e7a5a357cac4c7a628df4ca09a5ee27d49d60ee8ec0064ea5483d4b8ab90505f7fdd09cffa80134180caf03be5f37d4f0a58baa485d21f18a15074deff8eccf48a90505f7fe3c0ce85d14956d0fcf53195be5c65a834f921f2c71870b248c4726953f2137190505f7f290ac055d1c48d7072923cd7d7c36c055c0b0c7b91564020cc63ce60ebe8708090505f85555f84555f83555f82555f81553373ffffffffffffffffffffffffffffffffffffffff167fe8b81f80d5a15e0fa6ba0d507d1fae13211b22a6159be563c15a42f9f3ff4e5f60405160405180910390a25050505050506106675f612432565b565b5f60605f73ffffffffffffffffffffffffffffffffffffffff168473ffffffffffffffffffffffffffffffffffffffff16036106df575f6040518060400160405280601681526020017f496e76616c696420746172676574206164647265737300000000000000000000815250915091506107bd565b82471015610727575f6040518060400160405280601881526020017f496e73756666696369656e74204554482062616c616e63650000000000000000815250915091506107bd565b5f61073061245d565b90505f73ffffffffffffffffffffffffffffffffffffffff168173ffffffffffffffffffffffffffffffffffffffff16036107a6575f6040518060400160405280601381526020017f4e6f20617574686f72697a6564206f776e65720000000000000000000000000081525092509250506107bd565b600160405180602001604052805f81525092509250505b9250929050565b5f60606107cf61245d565b73ffffffffffffffffffffffffffffffffffffffff163373ffffffffffffffffffffffffffffffffffffffff1614610833576040517f344fd58600000000000000000000000000000000000000000000000000000000815260040160405180910390fd5b61083b6123fd565b15610872576040517f8beb9d1600000000000000000000000000000000000000000000000000000000815260040160405180910390fd5b61087c6001612432565b5f73ffffffffffffffffffffffffffffffffffffffff168673ffffffffffffffffffffffffffffffffffffffff16036108e1576040517f82d5d76a00000000000000000000000000000000000000000000000000000000815260040160405180910390fd5b8447101561091b576040517ff4d678b800000000000000000000000000000000000000000000000000000000815260040160405180910390fd5b8573ffffffffffffffffffffffffffffffffffffffff16858585604051610943929190612c27565b5f6040518083038185875af1925050503d805f811461097d576040519150601f19603f3d011682016040523d82523d5f602084013e610982565b606091505b5080925081935050508573ffffffffffffffffffffffffffffffffffffffff167ff0ac34b0a7e049fef9c9fbfbb165ac9cfeca6938437ecea3c3556bd6bf8684c4868686866040516109d79493929190612c6b565b60405180910390a281610a16576040517fbf961a2800000000000000000000000000000000000000000000000000000000815260040160405180910390fd5b610a1f5f612432565b94509492505050565b62093a8081565b610a376123fd565b15610a6e576040517f8beb9d1600000000000000000000000000000000000000000000000000000000815260040160405180910390fd5b610a786001612432565b5f610a81612491565b90505f73ffffffffffffffffffffffffffffffffffffffff168173ffffffffffffffffffffffffffffffffffffffff1603610ae8576040517f7a746da900000000000000000000000000000000000000000000000000000000815260040160405180910390fd5b8073ffffffffffffffffffffffffffffffffffffffff163373ffffffffffffffffffffffffffffffffffffffff1614610b4d576040517f344fd58600000000000000000000000000000000000000000000000000000000815260040160405180910390fd5b5f610b566124c5565b90505f610b616124f7565b90505f610b6c612529565b9050808284610b7b9190612cd6565b610b859190612cd6565b421015610bbe576040517f91c3ca2600000000000000000000000000000000000000000000000000000000815260040160405180910390fd5b5f610bc761245d565b9050610bd28561255b565b5f7fe6135ff1cc5bf23b2b67e8c079fd00288600c5e9a25ac958cf17fdea783cc7dd90505f7fa27104e7a5a357cac4c7a628df4ca09a5ee27d49d60ee8ec0064ea5483d4b8ab90505f7fe3c0ce85d14956d0fcf53195be5c65a834f921f2c71870b248c4726953f2137190505f83555f82555f81558773ffffffffffffffffffffffffffffffffffffffff168473ffffffffffffffffffffffffffffffffffffffff167f935c51778db70bb63d01ba9b319c9b8f13d608e43d550a91d8896bd1368857df60405160405180910390a35050505050505050610cb25f612432565b565b5f47905090565b610cc361245d565b73ffffffffffffffffffffffffffffffffffffffff163373ffffffffffffffffffffffffffffffffffffffff1614610d27576040517f344fd58600000000000000000000000000000000000000000000000000000000815260040160405180910390fd5b610d2f6123fd565b15610d66576040517f8beb9d1600000000000000000000000000000000000000000000000000000000815260040160405180910390fd5b610d706001612432565b5f73ffffffffffffffffffffffffffffffffffffffff168173ffffffffffffffffffffffffffffffffffffffff1603610dd5576040517f82d5d76a00000000000000000000000000000000000000000000000000000000815260040160405180910390fd5b5f4790505f8103610de65750610ed8565b5f8273ffffffffffffffffffffffffffffffffffffffff1682604051610e0b90612d2c565b5f6040518083038185875af1925050503d805f8114610e45576040519150601f19603f3d011682016040523d82523d5f602084013e610e4a565b606091505b5050905080610e85576040517fbf961a2800000000000000000000000000000000000000000000000000000000815260040160405180910390fd5b8273ffffffffffffffffffffffffffffffffffffffff167ff0ac34b0a7e049fef9c9fbfbb165ac9cfeca6938437ecea3c3556bd6bf8684c48383604051610ecd929190612d60565b60405180910390a250505b610ee15f612432565b50565b610eec61245d565b73ffffffffffffffffffffffffffffffffffffffff163373ffffffffffffffffffffffffffffffffffffffff1614610f50576040517f344fd58600000000000000000000000000000000000000000000000000000000815260040160405180910390fd5b610f586123fd565b15610f8f576040517f8beb9d1600000000000000000000000000000000000000000000000000000000815260040160405180910390fd5b610f996001612432565b5f73ffffffffffffffffffffffffffffffffffffffff168273ffffffffffffffffffffffffffffffffffffffff1603610ffe576040517f82d5d76a00000000000000000000000000000000000000000000000000000000815260040160405180910390fd5b80471015611038576040517ff4d678b800000000000000000000000000000000000000000000000000000000815260040160405180910390fd5b5f8273ffffffffffffffffffffffffffffffffffffffff168260405161105d90612d2c565b5f6040518083038185875af1925050503d805f8114611097576040519150601f19603f3d011682016040523d82523d5f602084013e61109c565b606091505b50509050806110d7576040517fbf961a2800000000000000000000000000000000000000000000000000000000815260040160405180910390fd5b8273ffffffffffffffffffffffffffffffffffffffff167ff0ac34b0a7e049fef9c9fbfbb165ac9cfeca6938437ecea3c3556bd6bf8684c4838360405161111f929190612d60565b60405180910390a2506111315f612432565b5050565b5f5f5f611140612491565b90505f73ffffffffffffffffffffffffffffffffffffffff168173ffffffffffffffffffffffffffffffffffffffff16036111a1575f7fffffffffffffffffffffffffffffffffffffffffffffffffffffffffffffffff925092505061120b565b5f6111aa6124c5565b90505f6111b56124f7565b90505f6111c0612529565b90505f8183856111d09190612cd6565b6111da9190612cd6565b90508042106111f45760015f96509650505050505061120b565b5f42826112019190612d9a565b9650965050505050505b9091565b6312cc030081565b61121f61245d565b73ffffffffffffffffffffffffffffffffffffffff163373ffffffffffffffffffffffffffffffffffffffff1614611283576040517f344fd58600000000000000000000000000000000000000000000000000000000815260040160405180910390fd5b61128b6123fd565b156112c2576040517f8beb9d1600000000000000000000000000000000000000000000000000000000815260040160405180910390fd5b6112cc6001612432565b5f7fdd09cffa80134180caf03be5f37d4f0a58baa485d21f18a15074deff8eccf48a90505f4290508082553373ffffffffffffffffffffffffffffffffffffffff167fba86a92ec4f9a430ce1db15be3f3909cc6e377afbe263e73d39af81e53b6130c4260405161133d9190612872565b60405180910390a250506113505f612432565b565b5f61135b61245d565b905090565b61136861245d565b73ffffffffffffffffffffffffffffffffffffffff163373ffffffffffffffffffffffffffffffffffffffff16146113cc576040517f344fd58600000000000000000000000000000000000000000000000000000000815260040160405180910390fd5b6113d46123fd565b1561140b576040517f8beb9d1600000000000000000000000000000000000000000000000000000000815260040160405180910390fd5b6114156001612432565b5f73ffffffffffffffffffffffffffffffffffffffff168373ffffffffffffffffffffffffffffffffffffffff16148061147a57505f73ffffffffffffffffffffffffffffffffffffffff168273ffffffffffffffffffffffffffffffffffffffff16145b156114b1576040517f82d5d76a00000000000000000000000000000000000000000000000000000000815260040160405180910390fd5b5f82826040516024016114c5929190612dcd565b6040516020818303038152906040527fa9059cbb000000000000000000000000000000000000000000000000000000007bffffffffffffffffffffffffffffffffffffffffffffffffffffffff19166020820180517bffffffffffffffffffffffffffffffffffffffffffffffffffffffff838183161783525050505090505f5f8573ffffffffffffffffffffffffffffffffffffffff168360405161156b9190612e24565b5f604051808303815f865af19150503d805f81146115a4576040519150601f19603f3d011682016040523d82523d5f602084013e6115a9565b606091505b50915091505f8280156115d757505f825114806115d65750818060200190518101906115d59190612e64565b5b5b905080611610576040517fbf961a2800000000000000000000000000000000000000000000000000000000815260040160405180910390fd5b8673ffffffffffffffffffffffffffffffffffffffff167ff0ac34b0a7e049fef9c9fbfbb165ac9cfeca6938437ecea3c3556bd6bf8684c45f868460405161165a93929190612ed1565b60405180910390a25050505061166f5f612432565b505050565b61167c61245d565b73ffffffffffffffffffffffffffffffffffffffff163373ffffffffffffffffffffffffffffffffffffffff16146116e0576040517f344fd58600000000000000000000000000000000000000000000000000000000815260040160405180910390fd5b6116e86123fd565b1561171f576040517f8beb9d1600000000000000000000000000000000000000000000000000000000815260040160405180910390fd5b6117296001612432565b5f73ffffffffffffffffffffffffffffffffffffffff168373ffffffffffffffffffffffffffffffffffffffff16148061178e57505f73ffffffffffffffffffffffffffffffffffffffff168273ffffffffffffffffffffffffffffffffffffffff16145b156117c5576040517f82d5d76a00000000000000000000000000000000000000000000000000000000815260040160405180910390fd5b5f82826040516024016117d9929190612dcd565b6040516020818303038152906040527f095ea7b3000000000000000000000000000000000000000000000000000000007bffffffffffffffffffffffffffffffffffffffffffffffffffffffff19166020820180517bffffffffffffffffffffffffffffffffffffffffffffffffffffffff838183161783525050505090505f5f8573ffffffffffffffffffffffffffffffffffffffff168360405161187f9190612e24565b5f604051808303815f865af19150503d805f81146118b8576040519150601f19603f3d011682016040523d82523d5f602084013e6118bd565b606091505b50915091505f8280156118eb57505f825114806118ea5750818060200190518101906118e99190612e64565b5b5b905080611924576040517fbf961a2800000000000000000000000000000000000000000000000000000000815260040160405180910390fd5b8673ffffffffffffffffffffffffffffffffffffffff167ff0ac34b0a7e049fef9c9fbfbb165ac9cfeca6938437ecea3c3556bd6bf8684c45f868460405161196e93929190612ed1565b60405180910390a2505050506119835f612432565b505050565b6119906123fd565b156119c7576040517f8beb9d1600000000000000000000000000000000000000000000000000000000815260040160405180910390fd5b6119d16001612432565b5f73ffffffffffffffffffffffffffffffffffffffff166119f0612491565b73ffffffffffffffffffffffffffffffffffffffff1603611a3d576040517f7a746da900000000000000000000000000000000000000000000000000000000815260040160405180910390fd5b611a4561245d565b73ffffffffffffffffffffffffffffffffffffffff163373ffffffffffffffffffffffffffffffffffffffff1614611aa9576040517f344fd58600000000000000000000000000000000000000000000000000000000815260040160405180910390fd5b5f7fe6135ff1cc5bf23b2b67e8c079fd00288600c5e9a25ac958cf17fdea783cc7dd90505f7fa27104e7a5a357cac4c7a628df4ca09a5ee27d49d60ee8ec0064ea5483d4b8ab90505f7fe3c0ce85d14956d0fcf53195be5c65a834f921f2c71870b248c4726953f2137190505f7fdd09cffa80134180caf03be5f37d4f0a58baa485d21f18a15074deff8eccf48a90505f4290505f85555f84555f83558082553373ffffffffffffffffffffffffffffffffffffffff167f577d80a92396a49283a298935287995fee74eceefc62c3edfdf8257ec854629660405160405180910390a25050505050611b9a5f612432565b565b62278d0081565b5f5f73ffffffffffffffffffffffffffffffffffffffff168273ffffffffffffffffffffffffffffffffffffffff1603611bdf575f9050611d12565b5f30604051602401611bf19190612965565b6040516020818303038152906040527f70a08231000000000000000000000000000000000000000000000000000000007bffffffffffffffffffffffffffffffffffffffffffffffffffffffff19166020820180517bffffffffffffffffffffffffffffffffffffffffffffffffffffffff838183161783525050505090505f5f8473ffffffffffffffffffffffffffffffffffffffff1683604051611c979190612e24565b5f60405180830381855afa9150503d805f8114611ccf576040519150601f19603f3d011682016040523d82523d5f602084013e611cd4565b606091505b5091509150818015611ce857506020815110155b15611d0b5780806020019051810190611d019190612f21565b9350505050611d12565b5f93505050505b919050565b5f611d2061245d565b73ffffffffffffffffffffffffffffffffffffffff163373ffffffffffffffffffffffffffffffffffffffff1614611d84576040517f344fd58600000000000000000000000000000000000000000000000000000000815260040160405180910390fd5b611d8c6123fd565b15611dc3576040517f8beb9d1600000000000000000000000000000000000000000000000000000000815260040160405180910390fd5b611dcd6001612432565b8484905087879050148015611de757508282905085859050145b611e26576040517f08c379a0000000000000000000000000000000000000000000000000000000008152600401611e1d90612f96565b60405180910390fd5b5f4290505f91505f5f90505b88889050811015612062575f73ffffffffffffffffffffffffffffffffffffffff16898983818110611e6757611e66612fb4565b5b9050602002016020810190611e7c91906129ce565b73ffffffffffffffffffffffffffffffffffffffff16031561205557868682818110611eab57611eaa612fb4565b5b905060200201354710612055575f898983818110611ecc57611ecb612fb4565b5b9050602002016020810190611ee191906129ce565b73ffffffffffffffffffffffffffffffffffffffff16888884818110611f0a57611f09612fb4565b5b90506020020135878785818110611f2457611f23612fb4565b5b9050602002810190611f369190612fed565b604051611f44929190612c27565b5f6040518083038185875af1925050503d805f8114611f7e576040519150601f19603f3d011682016040523d82523d5f602084013e611f83565b606091505b50509050898983818110611f9a57611f99612fb4565b5b9050602002016020810190611faf91906129ce565b73ffffffffffffffffffffffffffffffffffffffff167ff0ac34b0a7e049fef9c9fbfbb165ac9cfeca6938437ecea3c3556bd6bf8684c4898985818110611ff957611ff8612fb4565b5b9050602002013588888681811061201357612012612fb4565b5b90506020028101906120259190612fed565b856040516120369493929190612c6b565b60405180910390a2801561205357838061204f9061304f565b9450505b505b8080600101915050611e32565b50807f2964ca115e0eef7d75043dd3d3fa5c99beaf4091537fb398fcca1bad55c0027e838a8a9050604051612098929190613096565b60405180910390a2506120aa5f612432565b9695505050505050565b6120bc6123fd565b156120f3576040517f8beb9d1600000000000000000000000000000000000000000000000000000000815260040160405180910390fd5b6120fd6001612432565b5f61210661245d565b90505f73ffffffffffffffffffffffffffffffffffffffff168173ffffffffffffffffffffffffffffffffffffffff1603612148576121443361255b565b3390505b8073ffffffffffffffffffffffffffffffffffffffff163373ffffffffffffffffffffffffffffffffffffffff16146121ad576040517f344fd58600000000000000000000000000000000000000000000000000000000815260040160405180910390fd5b5f73ffffffffffffffffffffffffffffffffffffffff168373ffffffffffffffffffffffffffffffffffffffff1603612212576040517f7f5c473e00000000000000000000000000000000000000000000000000000000815260040160405180910390fd5b8073ffffffffffffffffffffffffffffffffffffffff168373ffffffffffffffffffffffffffffffffffffffff1603612277576040517f7f5c473e00000000000000000000000000000000000000000000000000000000815260040160405180910390fd5b62278d0082108061228b57506312cc030082115b156122c2576040517f17479ac800000000000000000000000000000000000000000000000000000000815260040160405180910390fd5b5f7fe6135ff1cc5bf23b2b67e8c079fd00288600c5e9a25ac958cf17fdea783cc7dd90505f7fa27104e7a5a357cac4c7a628df4ca09a5ee27d49d60ee8ec0064ea5483d4b8ab90505f7fdd09cffa80134180caf03be5f37d4f0a58baa485d21f18a15074deff8eccf48a90505f7fe3c0ce85d14956d0fcf53195be5c65a834f921f2c71870b248c4726953f2137190505f4290505f62093a8090508886558785558184558083558873ffffffffffffffffffffffffffffffffffffffff167fd6503c45d26f7c4ef41043695ab34857a2d222f6b208ac5b7642dcc40b5e0583896040516123af9190612872565b60405180910390a2505050505050506123c75f612432565b5050565b5f5f5f5f6123d7612491565b6123df6124f7565b6123e76124c5565b6123ef612529565b935093509350935090919293565b5f5f5f7fe4262478610998ec1b53f5fb364572dbf6a01e1a6fb3e6c5996a4a39c6da1f12905080549150600182149250505090565b5f7fe4262478610998ec1b53f5fb364572dbf6a01e1a6fb3e6c5996a4a39c6da1f1290508181555050565b5f5f5f7f290ac055d1c48d7072923cd7d7c36c055c0b0c7b91564020cc63ce60ebe87080905080549150815f1c9250505090565b5f5f5f7fe6135ff1cc5bf23b2b67e8c079fd00288600c5e9a25ac958cf17fdea783cc7dd905080549150815f1c9250505090565b5f5f5f7fdd09cffa80134180caf03be5f37d4f0a58baa485d21f18a15074deff8eccf48a905080549150819250505090565b5f5f5f7fa27104e7a5a357cac4c7a628df4ca09a5ee27d49d60ee8ec0064ea5483d4b8ab905080549150819250505090565b5f5f5f7fe3c0ce85d14956d0fcf53195be5c65a834f921f2c71870b248c4726953f21371905080549150819250505090565b5f7f290ac055d1c48d7072923cd7d7c36c055c0b0c7b91564020cc63ce60ebe8708090508181555050565b5f5ffd5b5f5ffd5b5f73ffffffffffffffffffffffffffffffffffffffff82169050919050565b5f6125b78261258e565b9050919050565b6125c7816125ad565b81146125d1575f5ffd5b50565b5f813590506125e2816125be565b92915050565b5f819050919050565b6125fa816125e8565b8114612604575f5ffd5b50565b5f81359050612615816125f1565b92915050565b5f5f6040838503121561263157612630612586565b5b5f61263e858286016125d4565b925050602061264f85828601612607565b9150509250929050565b5f8115159050919050565b61266d81612659565b82525050565b5f81519050919050565b5f82825260208201905092915050565b8281835e5f83830152505050565b5f601f19601f8301169050919050565b5f6126b582612673565b6126bf818561267d565b93506126cf81856020860161268d565b6126d88161269b565b840191505092915050565b5f6040820190506126f65f830185612664565b818103602083015261270881846126ab565b90509392505050565b5f5ffd5b5f5ffd5b5f5ffd5b5f5f83601f84011261273257612731612711565b5b8235905067ffffffffffffffff81111561274f5761274e612715565b5b60208301915083600182028301111561276b5761276a612719565b5b9250929050565b5f5f5f5f6060858703121561278a57612789612586565b5b5f612797878288016125d4565b94505060206127a887828801612607565b935050604085013567ffffffffffffffff8111156127c9576127c861258a565b5b6127d58782880161271d565b925092505092959194509250565b5f81519050919050565b5f82825260208201905092915050565b5f612807826127e3565b61281181856127ed565b935061282181856020860161268d565b61282a8161269b565b840191505092915050565b5f6040820190506128485f830185612664565b818103602083015261285a81846127fd565b90509392505050565b61286c816125e8565b82525050565b5f6020820190506128855f830184612863565b92915050565b5f6128958261258e565b9050919050565b6128a58161288b565b81146128af575f5ffd5b50565b5f813590506128c08161289c565b92915050565b5f602082840312156128db576128da612586565b5b5f6128e8848285016128b2565b91505092915050565b5f5f6040838503121561290757612906612586565b5b5f612914858286016128b2565b925050602061292585828601612607565b9150509250929050565b5f6040820190506129425f830185612664565b61294f6020830184612863565b9392505050565b61295f816125ad565b82525050565b5f6020820190506129785f830184612956565b92915050565b5f5f5f6060848603121561299557612994612586565b5b5f6129a2868287016125d4565b93505060206129b3868287016125d4565b92505060406129c486828701612607565b9150509250925092565b5f602082840312156129e3576129e2612586565b5b5f6129f0848285016125d4565b91505092915050565b5f5f83601f840112612a0e57612a0d612711565b5b8235905067ffffffffffffffff811115612a2b57612a2a612715565b5b602083019150836020820283011115612a4757612a46612719565b5b9250929050565b5f5f83601f840112612a6357612a62612711565b5b8235905067ffffffffffffffff811115612a8057612a7f612715565b5b602083019150836020820283011115612a9c57612a9b612719565b5b9250929050565b5f5f83601f840112612ab857612ab7612711565b5b8235905067ffffffffffffffff811115612ad557612ad4612715565b5b602083019150836020820283011115612af157612af0612719565b5b9250929050565b5f5f5f5f5f5f60608789031215612b1257612b11612586565b5b5f87013567ffffffffffffffff811115612b2f57612b2e61258a565b5b612b3b89828a016129f9565b9650965050602087013567ffffffffffffffff811115612b5e57612b5d61258a565b5b612b6a89828a01612a4e565b9450945050604087013567ffffffffffffffff811115612b8d57612b8c61258a565b5b612b9989828a01612aa3565b92509250509295509295509295565b5f608082019050612bbb5f830187612956565b612bc86020830186612863565b612bd56040830185612863565b612be26060830184612863565b95945050505050565b5f81905092915050565b828183375f83830152505050565b5f612c0e8385612beb565b9350612c1b838584612bf5565b82840190509392505050565b5f612c33828486612c03565b91508190509392505050565b5f612c4a83856127ed565b9350612c57838584612bf5565b612c608361269b565b840190509392505050565b5f606082019050612c7e5f830187612863565b8181036020830152612c91818587612c3f565b9050612ca06040830184612664565b95945050505050565b7f4e487b71000000000000000000000000000000000000000000000000000000005f52601160045260245ffd5b5f612ce0826125e8565b9150612ceb836125e8565b9250828201905080821115612d0357612d02612ca9565b5b92915050565b50565b5f612d175f83612beb565b9150612d2282612d09565b5f82019050919050565b5f612d3682612d0c565b9150819050919050565b5f612d4b5f836127ed565b9150612d5682612d09565b5f82019050919050565b5f606082019050612d735f830185612863565b8181036020830152612d8481612d40565b9050612d936040830184612664565b9392505050565b5f612da4826125e8565b9150612daf836125e8565b9250828203905081811115612dc757612dc6612ca9565b5b92915050565b5f604082019050612de05f830185612956565b612ded6020830184612863565b9392505050565b5f612dfe826127e3565b612e088185612beb565b9350612e1881856020860161268d565b80840191505092915050565b5f612e2f8284612df4565b915081905092915050565b612e4381612659565b8114612e4d575f5ffd5b50565b5f81519050612e5e81612e3a565b92915050565b5f60208284031215612e7957612e78612586565b5b5f612e8684828501612e50565b91505092915050565b5f819050919050565b5f819050919050565b5f612ebb612eb6612eb184612e8f565b612e98565b6125e8565b9050919050565b612ecb81612ea1565b82525050565b5f606082019050612ee45f830186612ec2565b8181036020830152612ef681856127fd565b9050612f056040830184612664565b949350505050565b5f81519050612f1b816125f1565b92915050565b5f60208284031215612f3657612f35612586565b5b5f612f4384828501612f0d565b91505092915050565b7f4172726179206c656e677468206d69736d6174636800000000000000000000005f82015250565b5f612f8060158361267d565b9150612f8b82612f4c565b602082019050919050565b5f6020820190508181035f830152612fad81612f74565b9050919050565b7f4e487b71000000000000000000000000000000000000000000000000000000005f52603260045260245ffd5b5f5ffd5b5f5ffd5b5f5ffd5b5f5f8335600160200384360303811261300957613008612fe1565b5b80840192508235915067ffffffffffffffff82111561302b5761302a612fe5565b5b60208301925060018202360383131561304757613046612fe9565b5b509250929050565b5f613059826125e8565b91507fffffffffffffffffffffffffffffffffffffffffffffffffffffffffffffffff820361308b5761308a612ca9565b5b600182019050919050565b5f6040820190506130a95f830185612863565b6130b66020830184612863565b939250505056fea26469706673582212205895773a9eeada9d2f21ab06f5f51a84e0ac5aa9750d95e5b74b1d0c2c32707964736f6c634300081e0033","linkReferences":{}},"methodIdentifiers":{"DEFAULT_GRACE_PERIOD()":"4c49fab8","MAX_INACTIVITY_PERIOD()":"8493eb25","MIN_INACTIVITY_PERIOD()":"b106d2d2","approveERC20(address,address,uint256)":"a8e5e4aa","canClaimInheritance()":"7d25327a","canExecuteTransaction(address,uint256)":"1abd384e","cancelInheritance()":"aa14cc6b","claimOwnership()":"4e71e0c8","emergencyReset()":"16388836","emergencyWithdraw(address)":"6ff1c9bc","executeBatchTransactions(address[],uint256[],bytes[])":"df39e114","executeTransaction(address,uint256,bytes)":"3f579f42","getAuthorizedOwner()":"97a9093d","getERC20Balance(address)":"b588d225","getETHBalance()":"6e947298","getInheritanceConfig()":"fe0f0aec","keepAlive()":"87740c0d","setupInheritance(address,uint256)":"e754dead","transferERC20(address,address,uint256)":"9db5dbe4","transferETH(address,uint256)":"7b1a4909"},"id":19}